:020000040800F2
:10000000F80B00200101000835400008C333000848
:10001000F93E0008911100088F550008000000000B
:10002000000000000000000000000000654B000818
:100030000312000800000000AD4600081D4E000835
:100040001B0100081B0100081B0100081B01000820
:100050001B0100081B0100081B0100081B01000810
:100060001B0100081B0100081B0100081B01000800
:100070001B0100081B0100081B010008CD1100082E
:100080001B0100081B0100081B0100081B010008E0
:100090001B0100081B0100081B0100081B010008D0
:1000A0001B0100081B0100081B0100081B010008C0
:1000B000614F00081B0100086D4F00081B0100087C
:1000C0001B0100081B0100081B0100081B010008A0
:1000D0001B010008495500081B0100081B0100080E
:1000E0001B0100081B0100081B010008DFF80CD0F1
:1000F00000F04AFD0048004795760008F80B002004
:100100000648804706480047FEE7FEE7FEE7FEE7B1
:10011000FEE7FEE7FEE7FEE7FEE7FEE7194F000811
:10012000ED0000082DE9F0410024061B254671F181
:10013000000605DA01240027D0EB070067EB010178
:10014000161E73F1000605DA0027D2EB070201251F
:1001500067EB030300F044FB86460E4617469C46B9
:10016000AC4204D00025D0EB050E65EB010624B1AE
:100170000020D2EB000760EB030C704631463A4694
:100180006346BDE8F081202A04DB203A21FA02F020
:100190000021704721FA02F3D040C2F120029140C1
:1001A000084319467047D2B201E000F8012B491EFE
:1001B000FBD270470022F6E710B513460A46044604
:1001C0001946FFF7F0FF204610BD30B505462A4618
:1001D0000B4612F8010B13F8014B08B1A042F8D0FE
:1001E0001CB1002802D06D1CF1E7284630BD421C2E
:1001F00010F8011B0029FBD1801A704730B5044666
:100200000020034600E05B1C934203D2E05CCD5C1F
:10021000401BF8D030BD000070B50F4D00B9286804
:10022000002412E00A4602E09E4203D0521C1378DA
:10023000002BF9D1DAB2224305D02BB124B1002131
:1002400000F8011B04E00446401C0678002EE9D1AA
:100250002860204670BD000004010020F0B480EA50
:100260000102D40F4200B2EB410F02D2024608460F
:1002700011464A0042D0C30DDDB2C1F3C752AD1AD8
:10028000202D35DAC1F3160141F4000204B15242C7
:10029000C5F1200602FA06F12A411044B3EBD05F03
:1002A00023D0C4B1012DA0EBC35009DCF0BC4FF04A
:1002B000004202EAC352DBB200F5000000F039BB95
:1002C000400000F1807000EBC350A0F1807040EA64
:1002D000D170490009E0490841EAC071A0EBC35060
:1002E00000F50000400800EBC350F0BC00F018BB64
:1002F0006142012202EB4101001BF6E7F0BC7047AE
:1003000081F00041AAE780F00040A7E780EA0102FF
:1003100010B502F00043400022D04A001FD0010E69
:1003200001EB1261C0F35600C2F3560240F4000024
:1003300042F40002A0FB022000047F39140400D024
:10034000401C50EA124001D44000491EC2B20C06C3
:1003500004EBD010401C4008802A02D003E00020AB
:1003600010BD20F00100002900DA0020184310BD64
:1003700030B480EA010202F0004530F0004221F082
:10038000004013D090B1C30DD40DC2F31601C0F3D9
:100390001600E41A41F4000140F400027D34914259
:1003A00001D3641C00E04900002C02DA30BC0020BC
:1003B00070474FF400000023914201D3891A034390
:1003C00040084FEA4101F7D151B1914202D14FF0BB
:1003D000004105E002D24FF0010101E06FF00101A0
:1003E00003EBC450284430BC00F09ABA420005D058
:1003F000C0F3C7525242914201DC0020704700EB2B
:10040000C15070472DE9FE4F804681EA0300C00FBE
:100410000C46009021F0004123F00045B8EB0200AB
:10042000A94105D24046214690461C460B4602464D
:1004300023F00040104347D0270DC7F30A00C3F351
:100440000A510290401A019040286BDAC3F313005E
:1004500040F4801B0098924620B10023D2EB030A9F
:1004600063EB0B0B01985946C0F14002504600F077
:10047000E8F906460D4650465946019A00F0F0F953
:1004800010EB08006141002487EA115284EAE77307
:100490001A4340D0009A62B3019A012A4FEA0752E8
:1004A00015DC001B61EB02014FF0004202EA07522B
:1004B000CDE90042001C41F5801132462B4600F088
:1004C00075FA03B0BDE8F08F40462146F9E7001BFE
:1004D00061EB0201001C41F5801300185B412018FC
:1004E000A2F5001747EB030140EAD570B6196D413C
:1004F00011E06D084FEA360645EAC0754FEA07522B
:10050000001B61EB0201001C41F5801149084FEA14
:1005100030000019514132462B4603B0BDE8F04F80
:1005200000F035BA0098012240000023D0EB02020F
:1005300063EBE073009821464FEAE074B8EB0000EB
:1005400061EB0401E9E783F000435BE781F00041E0
:1005500058E72DE9FE4F81EA030404F0004421F03E
:10056000004100944FF0000B23F0004350EA0104D7
:100570005ED052EA03045BD0C3F30A54C1F30A55B8
:100580002C44A4F2F3340194A0FB0254C1F31301F0
:1005900041F48011C3F3130343F4801301FB0244BD
:1005A00000FB034E840A970A44EA815447EA8357C2
:1005B000A4FB076802958D0A05FB07854FEA932C7B
:1005C00004FB0C542705029D4FEA065847EA1637EC
:1005D000B5EB08056EEB070C870E920E47EA811704
:1005E00042EA8312A7FB0201B6EB0B0164EB0004A5
:1005F0002B0D43EA0C335E1844EB1C50DA4651468F
:10060000E7FB0201C5F313044FEA0B3343EA14532B
:100610004FEA0432019C43EA0603A4F10C0402945D
:10062000009CCDE900B400F0C1F903B0BDE8F08F43
:1006300000200146F9E770B521F0004303430CD0D8
:10064000C1F30A550024D5EB040564EB0403D61767
:10065000AD1AB34102DB0020014670BD201841EB0A
:10066000025170BDC10F80EAE0700844CA079623AA
:10067000002100F05EB996230022114600F059B91E
:100680000EB5C10F80EAE0700844CA07002140F2AD
:1006900033438DE80E000A460B4600F087F903B09D
:1006A00000BD00F0004220F00040C10DC0F3160074
:1006B00040F400007F2901DA00207047962903DC0E
:1006C000C1F19601C84001E096398840002AF4D073
:1006D0004042704720F00040C10DC0F3160040F4C6
:1006E00000007F2901DA00207047962903DCC1F160
:1006F0009601C8407047963988407047C1F30A5246
:1007000010B5C1F3130140F2FF3341F480119A4256
:1007100001DA002010BD40F233439A42A2F2334284
:1007200003DC5242FFF72FFD10BD904010BD00F0DA
:10073000004230F000400AD0C10D01F56071C0F3F5
:10074000160042EA0151C2084007114370470020D9
:100750000146704701F0004330B421F0004150EAF7
:10076000010206D00A0DA2F56072C1F31301002A3E
:1007700002DC30BC00207047440F44EAC104C100D1
:10078000E01830BC00EBC25000F0CAB8002801DB12
:10079000C0F10040002901DBC1F1004181427047F6
:1007A000002801DBC0F10040002901DBC1F100415C
:1007B0008842704730B50B460146002020220124B4
:1007C00009E021FA02F59D4205D303FA02F5491B1F
:1007D00004FA02F52844151EA2F10102F1DC30BD35
:1007E0002DE9F05F0546002092469B468846064666
:1007F000814640241BE02846414647462246FFF7F3
:10080000C2FC53465A46C01A914110D311461846AD
:10081000224600F016F82D1A67EB01084F462246D3
:100820000120002100F00DF817EB00094E41201EB9
:10083000A4F10104DFDC484631462A464346BDE8C0
:10084000F09F202A04DB203A00FA02F100207047D2
:100850009140C2F1200320FA03F3194390407047FE
:10086000202A06DBCB17203A41FA02F043EAE07374
:1008700006E041FA02F3D040C2F120029140084361
:10088000194670470FB4002300B589B00CA9009138
:100890000B996FF00042CB601E4B06931E4B0793E3
:1008A0000423CDE901321D4A089202466B4600201E
:1008B00000F016FA09B05DF814FB70B586B0064674
:1008C0004FF0FF300091CDE90101002015460C46A4
:1008D00004903246694604A8FFF7D4FF0246049804
:1008E000211825B108B1084600E020462860049888
:1008F00000280DD0002A02DD0098884208D0081B8D
:100900000094CDE901043246694604A8FFF7BAFF16
:1009100006B070BD190F0008370F0008AD0B0008B6
:100920000029A8BF7047401C490008BF20F0010003
:10093000704710B4B0FA80FC00FA0CF050EA0104E1
:1009400004BF10BC704749B1CCF1200421FA04F473
:1009500011FA0CF118BF012121430843A3EB0C014C
:10096000CB1D4FEA00614FEA102042BF002010BCAF
:10097000704700EBC35010440029A4BF10BC70475F
:10098000401C490008BF20F0010010BC704710B5A2
:10099000141E73F1000408DA401C41F100019218A2
:1009A0005B411A4301D120F0010010BD2DE9F04D4B
:1009B00092469B4611B1B1FA81F202E0B0FA80F2A0
:1009C00020329046FFF73DFF04460F4640EA0A00FA
:1009D00041EA0B0153465A46084313D0114653EAE5
:1009E000010019D0C8F140025046FFF7CCFB054684
:1009F0000E46504659464246FFF723FF084305D0AE
:100A0000012004E020463946BDE8F08D0020054372
:100A100046EAE0762C4337430A986305E40AA0EBE4
:100A200008000022FD0A44EA47540A3002D500209B
:100A30000146E9E7010510196941DDE9084500199A
:100A40006941BDE8F04DA2E72DE9F04D81EA0304CC
:100A500004F0004B21F0004514464FF0000A23F04B
:100A6000004150EA050220D054EA01021DD0C5F32E
:100A70000A570246C5F31303C1F31300C1F30A5624
:100A800040F4801543F48013A7EB0608101BD646EC
:100A900008F2FD3873EB050002D308F1010801E00C
:100AA00092185B41B8F1000F03DA00200146BDE85F
:100AB000F08D00204FF48011064684460EE0171B8F
:100AC00073EB050705D3121B63EB050306434CEAE2
:100AD000010C49084FEA300092185B4150EA0107C7
:100AE000EDD152EA030012D082EA040083EA050144
:100AF000084305D0101BAB4106D20122002306E0BB
:100B000000224FF0004302E06FF0010253101AEB95
:100B100006004CEB085110EB0A0041EB0B01BDE85D
:100B2000F04DFFF734BFC1F30A52C1F3130140F295
:100B3000FF3341F480119A4202DA002001467047E7
:100B400040F233439A42A2F2334202DC5242FFF7B0
:100B50001ABBFFF776BE000030B5041E71F1000429
:100B600004DB4FF00044404264EB0101141E73F1BA
:100B7000000405DB1C464FF00043524263EB0403C4
:100B8000994208BF904230BD064C074D06E0E06830
:100B900040F0010394E8070098471034AC42F6D3C4
:100BA000FFF7A8FAC8B50008E8B50008C0B24FF4CE
:100BB000F05100F023BA00002DE9FF4F087883B010
:100BC0009946FF2805D0491C2D2804D00024002078
:100BD00008E000200BE00124F9E700EB800003EBC4
:100BE0004000491C0B78FF2BF7D104B14042002391
:100BF0000293147819461D462D2C01D02B2C04D1BC
:100C0000521C2D2C13D000240294AA461478FF2CD9
:100C10000FD00A25A3FB057801FB05814FF0000CDE
:100C200003FB0C11521CE3194AEB0101EEE701240E
:100C3000EAE7814453EA010002D019F5C87F06DAD9
:100C400003980021C0E9001107B0BDE8F08F00252E
:100C5000AE4E2F46DFF8B882184600F0E3F9CDE932
:100C60000001B9F1000002DAC9F1000400E0044615
:100C70000023A74A1AEB030B42EB045A12E0E007E9
:100C800007D02A46334638464146FFF762FC0746FE
:100C900088462A46334610461946FFF75AFC054651
:100CA0000E466410002CEAD1DDE90001B9F1000F15
:100CB0005A46534606DAFFF7C7FE3A464346FFF761
:100CC000C3FE05E0FFF745FC3A464346FFF741FC0B
:100CD000029A0AB181F00041039AC2E90001B3E728
:100CE0002DE9FF4F1F468DB0D7E901464FF0FF3881
:100CF0002E2045464FF000090B90B9696D1C0E98E7
:100D00008847396A824688470028F6D1BAF1FF3F02
:100D10000AD024F4D064002E11DDBAF12B0F08D0D4
:100D2000BAF12D0F0BD102E0404611B08DE744F42B
:100D30008064B9696D1C0E9888478246761E6946A4
:100D4000600501D52D2000E02B208DF8000001F179
:100D5000010B0DF1200809E0B9696D1C0E98884758
:100D600082460F9844F40074761E0560002E02DD62
:100D7000BAF1300FF0D00B998A453ED144F080048F
:100D800006E00F99681CA9F1010944F40074086099
:100D9000B9696D1C761E0E98884782463028F0D0BF
:100DA0002BE00B998A4505D1200603D444F080043A
:100DB000761E18E0504604F081FD08B30DF11301D2
:100DC000761E44F400748B4508D2AAF130000BF86B
:100DD000010B200607D5A9F1010003E0200602D48B
:100DE00009F101008146A00502D50F99681C086031
:100DF000B9696D1C0E9888478246002ED1DC53E0FD
:100E0000002E51DDBAF1650F02D0BAF1450F4BD17A
:100E1000A00549D5B9696D1C24F44074761E0E985E
:100E200088478246002E0CDD2B2804D0BAF12D0F06
:100E300007D144F48074B9696D1C0E9888478246C6
:100E4000761EE00501D52D2100E02B2108F8011BBD
:100E5000CDF82C8021E00DF12901761E44F40074B8
:100E600088450CD2AAF1300010F0FF0088F800008D
:100E700002D10B99884509D908F1010806E0E0057F
:100E800001D5244801E042F20F708146B9696D1C1A
:100E90000E98884782460F980560002E04DD504664
:100EA00004F00CFD0028D6D1F9690E988847FF2080
:100EB0008BF8000088F800000020069007904B4651
:100EC0006A4608A906A8FFF777FEA00502D46FF0CE
:100ED00001002AE714F0240F0AD0E00714D1DDE95D
:100EE00006123868031D3B600068C0E900120BE081
:100EF000DDE90601FFF72EFC0146E00704D1386862
:100F0000021D3A600068016028460EE700001440A8
:100F10000000F03FF1D8FFFF426842B1016811F8CC
:100F2000013B23B1521EC0E900121846704701214F
:100F3000C160881E704742685AB1C368016843B9EE
:100F400083688B4205D0491E521CC0E90012002064
:100F500070474FF0FF3070472DE9F04D00231A46DF
:100F60001B1A8A4103DB00200146BDE8F08DC1F366
:100F70000A52C1F3130141F480154FF0000BD10761
:100F800002D100186D41521E0027044640F2FF11A5
:100F9000384601EB620A3E468046024600204FF486
:100FA0008011FFF7F0F8C2197141BB1846EB010040
:100FB000B4EB030C75EB000C04D3E41A65EB0005ED
:100FC00017460E46241908F101006D418046342869
:100FD000E3DDF91946EB0600091BA84103D24FF0E7
:100FE000FF32134601E0002213461BEB070046EBDD
:100FF0000A51BDE8F04DFFF7CABC00007F2801D9B7
:10100000002208E0064A02EB5002C007127800D125
:10101000120902F00F0201209040084070470000C2
:10102000D8B400080EB540F2334202920022CDE956
:1010300000221346FFF7BAFC03B000BD70B50446AA
:1010400000688168C943C9071CD1816821F001018A
:10105000816000F04FFF05460FE000BF00F04AFF3F
:10106000401B022809D9A06A40F01000A062E06A83
:1010700040F00100E062012070BD20688068C0433C
:10108000C007EBD0002070BDF8B5002604460096DE
:1010900000688168C943C90728D0816841F001010F
:1010A0008160134813490068B0FBF1F000E0401E76
:1010B00000900028FBD100F01DFF054611E000BFA5
:1010C00000F018FF401B02280BD9A06A40F0100066
:1010D000A062E06A40F00100E06284F82460012030
:1010E000F8BD20688068C043C007E9D10020F8BD82
:1010F000F400002040420F000F4A10B5936A13F02D
:10110000FF4F4FF0000314D14FF49674A04201DD5D
:10111000A14204DC094CA0420BDAA14209DAD089D1
:10112000401C80B2D081322802D9D3810120906442
:1011300010BDD38110BD000040000020D4FEFFFF91
:101140002DE9F0410F480E490068FFF7D9F80E4E1F
:101150000546B0660D48B0F90200FFF783FA06F1C4
:101160006C07B968FFF7D2F8044628463968FFF7DC
:10117000CDF82146FFF772F8F065BDE8F081000078
:1011800000006040180000204000002028000020DF
:10119000FEE700000C4800218181418181614161AD
:1011A0000162C161C162416201638166416401659E
:1011B000C1654166016681634163C1630164C170B9
:1011C000017141717047000040000020014800F0AB
:1011D000D5BB00000407002030B590F84050012432
:1011E000AC40C56B6C60046863604368102B036897
:1011F00003D099600068C26030BD9A600068C16029
:1012000030BD70477047000006490020C86106489D
:10121000016941F004010161016941F0400101618E
:1012200070470000D807002000200240064A002135
:10123000D16106490A6942F002020A6148610869FF
:1012400040F0400008617047D807002000200240AD
:10125000044B0022DA61044A136943F0010313616D
:1012600001807047D8070020002002401448002267
:10127000C168CB06134904D5CA6942F00202CA61AB
:101280001022C3685B0705D5CB6943F00103CB612E
:1012900042F00402C369DB0707D0CB6943F00403C3
:1012A000CB61C16921F00101C161A2F580710139F1
:1012B00001D0C2607047C16921F00101C16170476E
:1012C00000200240D807002070B5054600F012FE4D
:1012D0000646114C09E0681C07D025B100F00AFE53
:1012E000801BA84201D9032070BDE068C007F2D17D
:1012F000E068800601D52020E060E068C00605D4E3
:10130000E069C00702D1E068400703D5FFF7AEFFF0
:10131000012070BD002070BD002002400C4810B5B7
:101320000068406A0C4902B20A4842810968496A69
:101330004FF08044494209B2818100236362074C27
:101340002360C3691A44C261026A1144016210BD7C
:1013500004060020400000208406002024080040ED
:101360002DE9F04700270E4680463C463D4636486C
:1013700000F058FA3221344800F0BCF9324800F04D
:10138000F9F8800505D5304800F0F6F86D1CEDB28F
:101390000744641CE4B2052CE9D3B7FBF5F0FFF772
:1013A0006AF92A49FEF7B2FF2949FEF7AFFF29493A
:1013B000FEF7DEFF07462849FEF7A8FF81462749CA
:1013C000FEF79EFF264D2946FEF7A0FF2549FEF7B2
:1013D000CFFF0446A84201DB2C4603E0B4F5000F22
:1013E00000DA00242048417839B320493846FEF716
:1013F0008DFF1F4F05463946D8F80000FEF786FFDF
:101400002946FEF72BFFC8F800002046FFF762F9D7
:10141000C0B2FFF730F91749FEF778FF044630787D
:10142000FFF729F93946FEF771FF2146FEF716FF4F
:10143000FFF750F93070BDE8F08701214170204678
:10144000C8F80090F4E70000C00500203333534093
:10145000000030416F1283406F12833A0000504108
:101460000000C84268666640F000002017B7D13817
:101470006666663FCDCCCC3DF8B50024009490F86C
:1014800024202546012A12D0012280F824204A680F
:101490001F23072A0DD20668776B521E02EB8202C9
:1014A00093409F430B6893401F43776319E00220EA
:1014B000F8BD06680D2A0AD2376BD21F02EB8202F2
:1014C00093409F430B6893401F43376309E0F76ADB
:1014D0000D3A02EB820293409F430B6893401F43F7
:1014E000F7620A68072306680A2A0AD3F7680A3AE5
:1014F00002EB420293409F438B6893401F43F76087
:1015000008E0376902EB420293409F438B689340A7
:101510001F4337610A68102A01D0112A20D1124BCB
:1015200002689A4217D193681B0219D4936843F456
:10153000000393600968102912D10C490C4A09680C
:10154000B1FBF2F101EB8101490000E0491E00917D
:101550000029FBD104E0816A41F02001816201246D
:1015600080F824502046F8BD00240140F4000020FB
:1015700040420F00806A70470068C06C70470000EE
:101580002DE9F0414FF0000704003D467ED0A06AEF
:10159000002628B9E66284F82460204600F07EF830
:1015A0002046FFF74BFDA16AC90600D420B1A06A0E
:1015B00040F01000A06269E0A16A21F4885141F076
:1015C0000201A1626268E169E3680A4347EA4301F4
:1015D0000A43A1684FF48077B94209D0012907D0A6
:1015E0005FF00001D4F814C0BCF1010F02D00AE092
:1015F0003946F7E7F3B1A36A43F02003A362E36A35
:1016000043F00103E3622368D3F804C02CF4694C6F
:101610004CEA010CC3F804C021688B68DFF870C085
:1016200003EA0C0313438B60A168B9420BD0012974
:1016300009D00CE0DFF85CC0A3690CEB43330B432B
:1016400043F40061DFE7218A0D05A5F580152168C7
:10165000CB6A23F470032B43CB62216889680E4B5D
:101660001940914208D1E662A16A21F0020141F0DD
:101670000101A162BDE8F081A06A20F0020040F003
:101680001000A062E06A40F00100E0620120F1E792
:10169000FDF7E1FF00E0FFFFFE0E1FFF00B585B084
:1016A0000021009101910291039100680E49884246
:1016B00018D10E48816941F400718161816901F49A
:1016C00000710491816941F004018161806969467A
:1016D00000F00400049010200090032001900448C2
:1016E00000F020FB05B000BD0024014000100240C6
:1016F000000801402DE9F84300260D4604460096F7
:1017000000F0F8FB804620688168C90508D5A06A0A
:1017100040F02000A06284F824600120BDE8F88336
:101720004168C90503D4C06A10F4700F26D00220A6
:1017300000F082FC38490968B1FBF0F720680369C2
:1017400036490B424FEA61014FEAA1121BD1C3682F
:101750004FEA611C13EA0C0F15D103690B4221D12A
:10176000C06810421ED114201FE0681C06D045B38B
:1017700000F0C0FBA0EB0800A84222D82068006857
:101780008007F2D52AE003690B4202D1C1681142F9
:1017900006D0026922490A4206D1C068084203D134
:1017A000542002E0292000E0FC204743009813E089
:1017B000681C0ED02DB100F09DFBA0EB0800A842E4
:1017C00007D9A06A40F00400A06284F824600320D6
:1017D000A4E70098401C0090B842E9D321686FF05C
:1017E00012000860A06A40F40070A062206880685F
:1017F000C0F3424007280CD1E06850B9A06A20F439
:101800008070A062A06AC00403D4A06A40F0010006
:10181000A062002082E70000F40000202449922406
:101820004992240070B5044690F8240001280DD098
:10183000012084F824002046FFF726FC02004FF028
:10184000000005D084F82400104670BD022070BD51
:10185000A16A40F20123994341F48071A1621F4DB6
:1018600023681F49AB4218D10E6816F4702F14D0AC
:10187000A66A46F48016A6620E68760505D5A66AA5
:1018800026F4005646F48056A662A66AF6040AD5E7
:10189000E66A26F00606E66206E0A66A26F48016E8
:1018A000A6625E68E9E7E06284F824006FF0020057
:1018B000186020688368C3F34243072B05D1A84210
:1018C00008D1096811F4702F04D0816841F48011A7
:1018D0008160B9E7816841F4A001F9E7002801407F
:1018E0000424014010B590F821100024022903D0EF
:1018F0000421816301243DE001680A6822F00E02A0
:101900000A6001680A6822F001020A601A4A016846
:10191000914201D1012121E0174A1432914201D1B3
:1019200010211BE0144A2832914201D1891515E09B
:10193000114A3C32914201D189140FE00E4A5032D3
:10194000914202D14FF4803108E00B4A6432914257
:1019500002D14FF4801101E04FF08071064A083A3D
:101960005160012180F82110002180F82010416B86
:1019700001B18847204610BD080002402DE9F05F04
:10198000C16B0C6801680B68D0F840C0042202FAF1
:101990000CF2494DDFF824A1494E4A4FDFF828B137
:1019A000DFF828E122422CD05A072AD50A6892068D
:1019B00003D40A6822F004020A600168A94201D136
:1019C000042219E0514501D1402215E0B14202D173
:1019D0004FF4806210E0B94202D14FF480420BE034
:1019E000594502D14FF4802206E0714502D14FF4EF
:1019F000800201E04FF080622F4908394A60C16AD5
:101A00003BE04FF0020808FA0CF818EA040F4FF018
:101A100000094FF0010235D05FEA837832D50B68B8
:101A20009B0605D40B6823F00A030B6080F8212085
:101A30000168A94201D1022219E0514501D12022B9
:101A400015E0B14202D14FF4007210E0B94202D168
:101A50004FF400520BE0594502D14FF4003206E03A
:101A6000714502D14FF4001201E04FF000721249AB
:101A700008394A6080F82090816A00291AD0BDE8B0
:101A8000F05F0847082505FA0CF5254212D01B0720
:101A900010D50B6823F00E030B6090F84010C36B59
:101AA00002FA01F15960826380F8212080F82090C9
:101AB000016BE2E7BDE8F09F080002401C00024015
:101AC0003000024044000240580002406C000240D6
:101AD00030B528B308C8134914221944B1FBF2F1F8
:101AE0008900C16310498163022141771A6843F676
:101AF000F0718A43D0E900142143D0E902452C4318
:101B000021430469214344692143846921431143EA
:101B1000196000214163012242770177084630BDF8
:101B2000012030BDF8FFFDBF0000024070B5044643
:101B300090F82000002501280CD0012084F8200016
:101B400094F821600020012E06D084F820000225A0
:101B5000284670BD022070BD022684F82160A06373
:101B60002068066826F0010606602046FFF734FB71
:101B7000E06A00282068016802D041F00E0106E00A
:101B800021F0040101602068016841F00A01016050
:101B90002068016841F001010160D9E770B5044691
:101BA00000F0A8F90546601C02D0044800780444FF
:101BB00000F0A0F9401BA042FAD370BDF80000204D
:101BC0002DE9F047054626480F460126017E0129EA
:101BD0000FD00121814601762868DFF888804CF219
:101BE0005034022808D0A2462046FFF76DFBA8B16A
:101BF00031E00220BDE8F0872046FFF765FB08BB17
:101C00000120FFF701FB2046FFF75EFBD8F810101C
:101C1000064621F00401C8F810101CE04FF0FF3018
:101C20003860AC6811E02046FFF700FB5046FFF734
:101C30004BFBD8F81010060021F00201C8F8101074
:101C400001D03C6007E004F58064D5E9020100EBB7
:101C50008120A042E7D8002189F818103046C9E752
:101C6000D8070020002002400348016941F08001AC
:101C70000161002070470000002002402DE9F05F64
:101C800007461C4888460024017E15461E46012949
:101C900009D00121814601764CF2503A5046FFF7B7
:101CA00013FB18B122E00220BDE8F09F012F02D003
:101CB000022F00D00427D346DFF83CA0220128469B
:101CC0003146FEF760FA81B208EB4400FFF7C0FA34
:101CD0005846FFF7F9FADAF8102022F00102CAF8A4
:101CE000102018B9641CE4B2BC42E7D3002289F882
:101CF0001820D9E7D807002000200240064900201C
:101D00000A69120607D5054A4A60054A4A60096908
:101D1000090600D5012070470020024023016745D5
:101D2000AB89EFCD2DE9F84FDFF890A100220AF141
:101D3000040B144601274FF00F090BF1040E00BFEE
:101D40000B6807FA04F52B40AB4274D1DFF870C181
:101D50004E68A6EB0C0866452BD00DDC032E34D064
:101D600005DC36B3012E19D0022E2FD11BE0112E27
:101D700016D0122E2AD119E0B8F5881F19D006DC2A
:101D8000B8F5803F15D0B8F5801F1FD111E0B8F528
:101D9000001F0ED0B8F5041F18D10AE0CA6815E07C
:101DA000CA68121D12E0CA6808320FE0CA680C3215
:101DB0000CE08A682AB1012A4FF0080203D045617D
:101DC00004E0042202E0056100E00022FF2B01D8BC
:101DD000064601E000F104064FEA840501D9A5F1A9
:101DE0002005D6F800C009FA05F82CEA080C02FA1A
:101DF00005F54CEA050CC6F800C04D68ED0057D556
:101E0000304DAE6946F00106AE61AD6924F00306BF
:101E100005F0010500952C4D06EB050CDCF808508B
:101E2000A6074FEA167809FA08F6B543274EB042DE
:101E300002D1002610E03BE0254EB04201D1012640
:101E40000AE0244EB04201D1022605E0224EB04203
:101E500001D1032600E0042606FA08F62E43CCF84A
:101E600008604D68DAF80060ED03554601D51E4361
:101E700000E09E432E604D68DBF80060AD035D46D8
:101E800001D51E4300E09E432E604D68DEF80060E1
:101E9000ED02754601D51E4300E09E432E604D685D
:101EA000AD020E4D2E6801D51E4300E09E432E600C
:101EB000641C102CFFF444AFBDE8F88F000401400F
:101EC0000000111000100240000001400008014015
:101ED000000C014000100140001401400C040140BE
:101EE0008068084000D0012070470AB10161704746
:101EF0000904FBE70148806870470000F8000020F3
:101F0000024881680278114481607047F80000201F
:101F1000074810B5016841F010010160032000F08E
:101F200073F8002000F006F800F024F8002010BD3F
:101F30000020024070B50D4D04464FF47A712878A8
:101F4000B1FBF0F00A490968B1FBF0F000F02BFD9D
:101F500048B9102C07D200222146501E00F034F858
:101F600000206C6070BD012070BD0000F8000020F2
:101F7000F40000200C4808B5816941F0010181613D
:101F8000816901F001010091C16941F08051C16195
:101F9000C06900F0805000900448416821F0E06181
:101FA00041F00071416008BD001002400000014096
:101FB00000F01F02012191404009800000F1E02063
:101FC000C0F8001170470000F0B40E4B1B680C46BF
:101FD000C3F30223C3F10705042D00D90425191DFD
:101FE000072901D2002300E0DB1E012606FA05F1D5
:101FF000491E214099409E40761E16403143F0BC58
:1020000002F019B80CED00E0064900F0070208687C
:102010004FF6FF03184040EA0220034A10430860CD
:10202000704700000CED00E00000FA0501490120B6
:102030000862704700000E4210B529A401461DCC6D
:1020400086B08DE81D002AA02A4C0068049000206C
:10205000012923D002293AD010291DD161682268B4
:10206000D20119D5C1F38342C9031DF8020009D575
:10207000616804AAC1F34041515C1F4AB2FBF1F10F
:10208000484301E01D4948436168490204D44000C7
:102090005FF00301B0FBF1F006B010BD226AC2F39D
:1020A0000121012903D1920701D5C803F4E70229D0
:1020B00005D1626A920702D549F64040ECE7032950
:1020C000EAD121688903E7D54FF22440E4E700F024
:1020D00053F96168C1F38131491C4900DAE7000016
:1020E00002030405060708090A0B0C0D0E0F101059
:1020F000010200000010024000127A0000093D00B9
:102100002DE9F84305460078354CC00754D0E06906
:102110000026C00008D4E06940F08050E061E0692A
:10212000012600F0805000902E480168C90512D4A5
:102130000168804641F480710160FFF7DBFE0746CD
:1021400005E000BFFFF7D6FEC01B642823D8D8F8EF
:102150000000C005F6D5206A10F4407021D0A9888F
:1021600001F4407181421CD0206A1F49012220F4F1
:1021700040700A6000220A602062C00711D0FFF799
:10218000B9FE074641F2883808E000BFFFF7B2FE0B
:10219000C11B414502D90320BDE8F883206A8007AE
:1021A000F4D5206A696820F44070084320621EB1AB
:1021B000E06920F08050E0612878800705D56068EC
:1021C000A96820F44040084360602878C00605D51F
:1021D0006068E96820F48000084360600020DBE765
:1021E0000010024000700040400442422DE9F047D8
:1021F000DFF8548105460E46D8F8000000F00700CD
:10220000B0420CD2D8F8001021F007013143C8F8D1
:102210000010D8F8000000F00700B0426FD1286825
:102220004A4C810712D5400703D5606840F4E0604E
:1022300060602878000703D5606840F460506060F3
:102240006068A96820F0F000084360602878C00743
:1022500044D06868012816D02168022816D0890762
:1022600000294CDA616821F0030101436160FFF746
:1022700041FE6968074641F2883001290ED00229E3
:10228000814618D026E021688903E9E78901E7E75C
:10229000FFF730FEC11B494501D918E0814660684F
:1022A000C0F381000128F3D118E000BFFFF722FE40
:1022B000C11B49450BD86068C0F381000228F5D1E5
:1022C0000CE000BFFFF716FEC11B494502D90320F1
:1022D000BDE8F087606810F00C0FF3D1D8F800105B
:1022E000404601F00701B1420BD9016821F0070116
:1022F00031430160006800F00700B04201D00120C6
:10230000E6E72878400705D56068E96820F4E060D2
:10231000084360602878000706D56068296920F4C2
:10232000605040EAC100606000F036F86168084A19
:10233000C1F30311515CC840064908600020FFF753
:10234000F9FD0020C4E70000002002400010024018
:10235000CAB30008F4000020044805490068496831
:10236000044AC1F30221515CC8407047F4000020C8
:1023700000100240DAB300080448054900684968C3
:10238000044AC1F3C221515CC8407047F4000020E8
:1023900000100240DAB3000812A185B00FC98DE821
:1023A0000F0014A0144A006804905168134801F00B
:1023B0000C03042B10D0082B0ED1C1F38343C903A7
:1023C0001DF803000AD5516804AAC1F34041515CCD
:1023D0000A4A5043B0FBF1F005B070470849484342
:1023E000FAE7000002030405060708090A0B0C0DB2
:1023F0000E0F1010010200000010024000127A00BF
:1024000000093D002DE9F84F04460078B94DC0079A
:1024100048D06868C0F38100012807D06868C0F31D
:102420008100022809D16868C00306D528688003A6
:1024300038D5606800286FD034E06068B0F5803F20
:102440000BD010B1B0F5A02F11D0286820F4803047
:102450002860286820F4802002E0286840F480305A
:102460002860606888B1FFF745FD064609E02868E6
:1024700040F480202860F0E7FFF73CFD801B6428D3
:1024800075D828688003F7D50CE0FFF733FD0646C2
:1024900005E000BFFFF72EFD801B6428F0D82868F8
:1024A0008003F7D42078944E80074FF001094FF055
:1024B00000083BD5686810F00C0F07D06868C0F3BF
:1024C0008100022809D16868C00306D42868800703
:1024D00014D5206901281FD110E02069B0B1C6F8D9
:1024E0000090FFF707FD074605E000BFFFF702FD7C
:1024F000C01B0228C4D828688007F7D528686169FE
:1025000020F0F80040EAC10028600FE0C6F8008023
:10251000FFF7F0FC074606E0E9E000BFFFF7EAFC42
:10252000C01B022823D828688007F7D4207800072A
:102530002CD57248A169D9B1C0F80090FFF7DAFC38
:10254000074604E0FFF7D6FCC01B02280FD8686AD4
:102550008007F7D56A484FF4FA510068B0FBF1F0F4
:10256000009000BF0098411E0091FAD20EE080E07A
:10257000C0F80080FFF7BEFC074604E0FFF7BAFC96
:10258000C01B022875D8686A8007F7D420784007F6
:1025900060D5E8690027C00008D4E86940F08050A1
:1025A000E861E869012700F0805000905548016813
:1025B000C90513D40168834641F480710160FFF7B7
:1025C00099FC824606E000BFFFF794FCA0EB0A00EE
:1025D00064284ED8DBF80000C005F5D5E068012876
:1025E0000AD008B1052813D0286A20F0010028621B
:1025F000286A20F0040002E0286A40F00100286206
:10260000E06841F2883B98B1FFF774FC82460BE02A
:10261000286A40F004002862EEE700BFFFF76AFC7A
:10262000A0EB0A0159455AD8286A8007F6D50CE074
:10263000FFF760FC824605E0FFF75CFCA0EB0A01B7
:1026400059454CD8286A8007F6D41FB1E86920F0B4
:102650008050E861E06988B36968C1F381010229AB
:1026600045D00228C6F8608004D0FFF743FC04463A
:1026700038E034E0FFF73EFC074604E0FFF73AFCA1
:10268000C01B02282BD828688001F7D4206AB0F537
:10269000803F05D16868A16820F400300843686075
:1026A000D4E908010843696821F47411084368609B
:1026B000C6F86090FFF71EFC044606E015E000BF78
:1026C000FFF718FC001B022809D828688001F7D5FD
:1026D0000BE000BFFFF70EFC001B022802D903200D
:1026E000BDE8F88F28688001F4D40020F8E70120C5
:1026F000F6E700000010024000004242800442421F
:10270000F400002000700040024850F8210080B220
:1027100070470000006C0040024800EB810091B25D
:1027200001607047006C004070B5040003D0607C0D
:10273000002610B105E0012070BD2674204600F08F
:1027400043F802206074204600F010F9042578BB9D
:10275000204602F04CF858BB2068416821F0070180
:102760004160A06820B11748016821F001010160B3
:102770001448001F0168A26821F4607111430160D0
:102780006068411C04D10120FFF756FC80B1401E57
:1027900021688A6822F00F0242EA10428A602168AA
:1027A000CA6860F30F02CA60204602F03BF808B125
:1027B0006574C0E7E67301206073A0736074002045
:1027C00070BD0000306C004008B5006808498842C0
:1027D0000DD1FFF72BFC0748C16941F00061C161D1
:1027E000C069054900F0006000900120086008BD44
:1027F00000280040001002403C0442422DE9F04114
:102800000D4604003BD0C5B3207C01283AD04FF0E0
:10281000010884F8108002206074E87872B301F037
:10282000DDFFE073687801F0D9FF6073A87801F0EC
:10283000D5FFA073C2B2617BE07B02F046F8207343
:102840002870204602F031F84FF46161B0FBF1F1DD
:10285000002518292DD91822B1FBF2F1A1EB0111A5
:1028600001EB4101C1EB011100EBC11631462046DD
:1028700002F06AF80427C8B90BE000E004E0012088
:10288000BDE8F0810220FBE7E07368786073A87808
:10289000CFE7204602F002F8411C0AD0B04208D22D
:1028A00006490144204602F03BF810B167742574D4
:1028B000E5E784F8118025740020E1E780510100EC
:1028C0002DE9F0410D46040024D01DB3207C0128E1
:1028D00023D04FF0010884F810800220607428781B
:1028E000EAB101F07BFF4FF4616100FB01F668780B
:1028F00001F074FFC0EB001006EB8006A87801F031
:102900006DFF35182946204602F01EF800260427E0
:1029100010BB0FE00120BDE8F0810220FBE74FF47F
:10292000616148436978C1EB011100EB8100A9782E
:102930004518E7E72068416821F00501416020461D
:1029400001F0ACFF411C0AD0A84208D2064901445C
:10295000204601F0E5FF10B167742674DAE784F8C9
:10296000118026740020D6E78051010070B5040064
:102970000AD02068416821F008014160FFF7BAFAE7
:1029800005464FF47A7608E0012070BDFFF7B2FAF1
:10299000401BB04201D9032070BD20684068000789
:1029A000F4D5002070BD10B5401EB0F1807F01D37A
:1029B000012010BD4FF0E02460610F21601701F08D
:1029C0003AFB0020A06107202061002010BD704765
:1029D000704730B590F83C20012A20D0012280F8C1
:1029E0003C20022380F83D3003685C6824F07004CA
:1029F0005C6003685C680D682C435C6003689C68DD
:102A000024F080049C6003689C6849680C439C60C7
:102A100080F83D20002180F83C10084630BD02209F
:102A200030BD10B5040003D094F83D0010B107E0AC
:102A3000012010BD002084F83C00204600F00CF876
:102A4000022084F83D00211D206802F095FA012043
:102A500084F83D00002010BD08B500680649884292
:102A600008D10648C16941F00201C161C06900F0A6
:102A70000200009008BD0000000400400010024069
:102A800070B5044690F83C00012817D0012584F861
:102A90003C50022084F83D002068826822F07702D2
:102AA00022F47F4282600868502837D00DDC20284D
:102AB00059D005DC88B3102841D151E0022070BD07
:102AC000302853D040283AD13FE060282ED07028DB
:102AD0000BD0B0F5805F03D0B0F5005F2FD110E0D0
:102AE0002068816821F0070115E0CB68D1E9012158
:102AF000206802F082FA2168886840F077008860D8
:102B00001DE0CB68D1E90121206802F076FA206847
:102B1000816841F48041816011E01EE0CA68496823
:102B2000206802F01FFB5021206806E0CA6849684F
:102B3000206802F028FB6021206802F068FA84F81F
:102B40003D50002084F83C0070BDCA684968206888
:102B500002F008FB40212068EFE700212068ECE745
:102B600010212068E9E720212068E6E7302120686D
:102B7000E3E72DE9F0410D46040003D094F83D0051
:102B800018B108E00120BDE8F081002084F83C0085
:102B9000204600F039F8022084F83D002068816862
:102BA00021F007018160211D206802F0E5F922680B
:102BB00090689169166A2B68AF69034340F203304D
:102BC000814341EA0721A868EF6908434FF6FC41B9
:102BD0008843E96840EA0720014328692F6A000119
:102BE00040EA0730084369686D6926F0AA0646EA9C
:102BF00005152943936022689061206801620120D5
:102C000084F83D000020BEE700B585B000210091AA
:102C100001910291039101682248B1F1804F23D0C4
:102C2000214A91421ED1C16941F00401C161C169CB
:102C300001F004010491816941F00801816180691A
:102C4000694600F008000490C02000901748FFF784
:102C500069F8002201211E20FFF7B6F95FF01E007F
:102C6000FFF7A6F905B000BDC16941F00101C161DE
:102C7000C16901F001010491816941F004018161A0
:102C80008069694600F00400049003200090084821
:102C9000FFF748F8002201211C20FFF795F91C20BE
:102CA000DEE700000010024000080040000C014078
:102CB0000008014010B50446006891B1042904D011
:102CC0000122002102F08EF9206801225FF0040148
:102CD00002F088F92068016841F0010101600020DC
:102CE00010BD01220021F3E7704770B5044600686B
:102CF00001694FF00005C943890715D4C168C9436C
:102D0000890711D4E91E01610120207720688069BC
:102D10008007204602D0FFF7E7FF04E000F0D0F87C
:102D2000204600F052F9257720680169C943490718
:102D300017D4C168C943490713D46FF00401016176
:102D4000022020772068806910F4407F204602D05E
:102D5000FFF7CAFF04E000F0B3F8204600F035F9B1
:102D6000257720680169C943090716D4C168C9439A
:102D7000090712D46FF00801016104202077206850
:102D8000C0698007204602D0FFF7AEFF04E000F0E4
:102D900097F8204600F019F9257720680169C943A2
:102DA000C90617D4C168C943C90613D46FF010010E
:102DB0000161082020772068C06910F4407F204618
:102DC00002D0FFF791FF04E000F07AF8204600F00F
:102DD000FCF8257720680169C943C90708D1C16893
:102DE000C943C90704D1891E0161204600F006F9D4
:102DF00020680169C943090609D4C168C9430906A5
:102E000005D46FF0800101612046FFF7E0FD2068E6
:102E10000169C943490609D4C168C943490605D4B3
:102E20006FF040010161204600F0E9F82068016977
:102E3000C94389060BD4C168C943890607D46FF01A
:102E4000200101612046BDE87040FFF7C1BD70BDA3
:102E500010B586B0002100910191029103910068A4
:102E60001349884221D11348816941F004018161ED
:102E7000816901F004010491816941F008018161D7
:102E80008069022400F008000490C020CDE900040D
:102E9000694609480394FEF745FF0320CDE9000485
:102EA000694606480394FEF73DFF06B010BD0000DA
:102EB000000400400010024000080140000C0140E6
:102EC000704770B5044690F83C000D4601280DD0BF
:102ED000012684F83C60022084F83D0042B1042AB7
:102EE00018D0082A2AD00C2A4DD139E0022070BD12
:102EF000206802F095F82068816941F0080181613D
:102F00002068816921F004018161206881692A6952
:102F1000114311E0206802F0ABF82068816941F4A8
:102F2000006181612068816921F48061816120688C
:102F300081692A6941EA0221816124E0206802F066
:102F4000C3F82068C16941F00801C1612068C16906
:102F500021F00401C1612068C1692A69114311E0AF
:102F6000206802F0DDF82068C16941F40061C161A8
:102F70002068C16921F48061C1612068C1692A6942
:102F800041EA0221C16184F83D60002084F83C00E0
:102F900070BD10B5040003D094F83D0010B107E0F7
:102FA000012010BD002084F83C00204600F00CF801
:102FB000022084F83D00211D206801F0DDFF012082
:102FC00084F83D00002010BD7047704710B50446DE
:102FD0000068012202F006F807492068884203D100
:102FE000416C41F4004141642068016841F00101F5
:102FF0000160002010BD0000002C014070477047A8
:103000007047000070B5026804461068D1685369C3
:1030100010F00F0F50D003F0010501F49076354306
:103020005DD0C20705D0CA0503D5E26B42F00102AC
:10303000E263420705D5DA0703D0E26B42F00202F1
:10304000E263820705D5DA0703D0E26B42F004029F
:10305000E263020705D5DA0703D0E26B42F008020B
:10306000E263E26B002A33D0800604D5880602D5DD
:10307000204602F001F920684069E16BC0F380103E
:10308000090700D428B3204602F0DFF82068416920
:1030900049061AD5416921F040014161606BA0B138
:1030A0001B494163606BFEF71DFC002810D0606B6C
:1030B000416BBDE870400847830610D58B060ED5DE
:1030C0002046BDE8704002F0D7B82046FFF798FFD1
:1030D00070BD2046FFF794FF0020E06370BD03063B
:1030E00006D50B0604D52046BDE8704002F0C8B9ED
:1030F0004006F3D54806F1D5D168204621F04001BD
:10310000D160202184F8391000F05AF970BD000018
:10311000AB51000870B5040004D094F839000025C4
:1031200010B106E0012070BD84F83850204600F050
:1031300023F8242084F839002068C16821F4005164
:10314000C160204602F0E4F82068016921F4904152
:1031500001612068416921F02A0141612068C1684C
:1031600041F40051C160E563202084F8390084F8FF
:103170003A00002070BD000070B586B000250646FC
:1031800000950195029503950068224988423FD138
:103190002149886940F480408861886900F4804052
:1031A0000490886940F00400886188691B4C00F035
:1031B0000400049048150090022001900320039021
:1031C00069462046FEF7AEFD2015CDE900056946AB
:1031D00020460295FEF7A6FD124C1148C4E90005F1
:1031E0008020C4E9025020202561C4E90550204612
:1031F000E561FEF76DFC08B1FEF704F87463002288
:10320000022125206662FEF7DFFE2520FEF7D0FEB4
:1032100006B070BD003801400010024000080140B7
:103220005800024004070020F8B5044690F83A0020
:1032300020283CD1C1B3BAB394F83800012836D065
:10324000012084F83800A162A2850025E5632220D0
:1032500084F83A00636B17489862636B1648D8622B
:10326000636B16481863606B134645630846666BCC
:10327000216802463046091DFEF758FC20680168A7
:103280004168009184F83850C16841F48071C16090
:103290002068416941F0010141612068416941F0C4
:1032A000400141610020F8BDFFE70120FBE702205B
:1032B000F9E700000552000841520008BB51000820
:1032C00000680B49884212D10A490878802801D346
:1032D0000020087008488278084B08781A54401C6F
:1032E000087005490122891C0548FFF79DBF7047FA
:1032F00000380140F3000020F000002048070020C3
:10330000C406002070472DE9F843044690F83900C0
:103310001F4616460D46202850D1A5B19EB194F8FF
:10332000380001284AD0012084F838004FF0000806
:10333000C4F83C80212084F83900FEF7DBFDA68428
:103340008146E68426E00120BDE8F883E08C401E3B
:10335000E084A0684B46B0F5805F4FF000024FF06C
:1033600080012046009703D002F0BBF8E8B90DE0D9
:1033700002F0B7F8C8B928882168C0F3080048608F
:10338000206908B16D1C05E0AD1C03E0216815F84B
:10339000010B4860E08C0028D8D14B460022402128
:1033A0002046009702F09DF808B10320CCE72020CA
:1033B00084F8390084F838800020C5E70220C3E78C
:1033C0007047FEE72DE9F041082405464FF40078E8
:1033D0006601134F18E000BFFEF787FD00F0A4F868
:1033E000280601D5012200E0002241463846FEF7BA
:1033F0007CFD6806050E00F097F80122314638463C
:10340000FEF773FD00F090F8641EE4B24FF0000286
:1034100031463846E0D2BDE8F041FEF766BD000017
:10342000000C014070B50122144D5402214628467B
:10343000FEF75BFD012211022846FEF756FD00F063
:1034400073F821462846FEF74BFD00280CD00022D9
:1034500021462846FEF749FD00F066F82146284639
:10346000FEF73EFD08B1002070BD0022214628462F
:10347000FEF73BFD00F058F8012070BD000C014044
:1034800070B5114D4FF48074002221462846FEF796
:103490002CFD00F049F86600002231462846FEF770
:1034A00024FD00F041F8012221462846FEF71DFDCB
:1034B00000F03AF8012231462846FEF716FDBDE835
:1034C000704000F031B80000000C014070B5154CA0
:1034D0004FF48075002229462046FEF706FD00F0D5
:1034E00023F80122560231462046FEF7FEFC00F08A
:1034F0001BF8012229462046FEF7F7FC00F014F8DD
:1035000031462046FEF7ECFC00284FF00002294629
:10351000204603D0FEF7E9FC002070BDFEF7E5FC75
:10352000012070BD000C014008B507200090401E2E
:103530000090FCD108BD81070CD16421B0FBF1F2F1
:1035400001FB120141B94FF4C871B0FBF1F201FB6C
:10355000120008B1002070470120704770B5174C69
:10356000A06C002825D01648A66E0025864221D2E0
:10357000144886421EDA608A401C80B2608232287B
:1035800017D365823046E16CFCF7BAFE0E498842DB
:103590000DDA0E4988420AD8208A401C80B2208267
:1035A000042805D3258265822563A56400E0258271
:1035B000E66470BD6582258270BD00004000002079
:1035C0000000A0C00000A040CDCC4C3FCDCC4CBFF3
:1035D00010B503F065FF04F063FA00285AD12EA05D
:1035E00001F0C4FF782004F01FFF002842D033A070
:1035F00001F0BCFF782004F085F900283CD03AA007
:1036000001F0B4FF642004F0CFFE002836D042A0C1
:1036100001F0ACFF03F098F9002831D047A000BFBB
:1036200001F0A4FF544803F0FFFF03F03FFB002824
:1036300028D052A001F09AFF40F2731003F05CF81A
:10364000002821D059A000BF01F090FF642003F0B2
:1036500095FA00281AD061A001F088FF04F0C4FF99
:10366000012004F0C7FD002812D067A0BDE810407B
:1036700001F07CBF6FA0BBE776A0C1E77EA0C7E7E3
:1036800087A0CDE793A0D5E79CA0DDE7A4A0E3E762
:10369000ACA0EBE710BD00006D707520696E697419
:1036A00069616C697A6174696F6E20636F6D706CAB
:1036B0006574652E2E2E2E2E2E0A20006D70755FDD
:1036C0007365745F73656E736F7220636F6D6520D1
:1036D0006163726F7373206572726F72202E2E2E6B
:1036E0002E2E2E0A000000006D70755F636F6E66EF
:1036F00069677572655F6669666F20636F6D6520C7
:103700006163726F7373206572726F72202E2E2E3A
:103710002E2E2E0A000000006D70755F7365745FB9
:1037200073616D706C655F72617465206572726F34
:1037300072202E2E2E2E2E2E0A000000646D705F39
:103740006C6F61645F6D6F74696F6E5F64726976D0
:1037500065725F6669726D7761726520636F6D6512
:10376000206163726F7373206572726F72202E2EE8
:103770002E2E2E2E0A00000034000020646D705F93
:103780007365745F6F7269656E746174696F6E20C2
:10379000636F6D65206163726F7373206572726F02
:1037A00072202E2E2E2E2E2E0A000000646D705FC9
:1037B000656E61626C655F666561747572652063D4
:1037C0006F6D65206163726F7373206572726F72C3
:1037D000202E2E2E2E2E2E0A00000000646D705F0B
:1037E0007365745F6669666F5F7261746520636F8D
:1037F0006D65206163726F7373206572726F7220E2
:103800002E2E2E2E2E2E0A006D70755F7365745F3E
:10381000646D705F737461746520636F6D652061A2
:1038200063726F7373206572726F72202E2E2E2E4C
:103830002E2E0A006D70755F7365745F73656E730D
:103840006F7220636F6D706C657465202E2E2E2E46
:103850002E2E0A006D70755F636F6E6669677572F4
:10386000655F6669666F20636F6D706C6574652057
:103870002E2E2E2E2E2E0A006D70755F7365745FCE
:1038800073616D706C655F7261746520636F6D70DC
:103890006C657465202E2E2E2E2E2E0A0000000040
:1038A000646D705F6C6F61645F6D6F74696F6E5F84
:1038B0006472697665725F6669726D7761726520A0
:1038C000636F6D706C657465202E2E2E2E2E2E0A61
:1038D00000000000646D705F7365745F6F726965EE
:1038E0006E746174696F6E20636F6D706C65746562
:1038F000202E2E2E2E2E2E0A00000000646D705FEA
:10390000656E61626C655F66656174757265206382
:103910006F6D706C657465202E2E2E2E2E2E0A0073
:10392000646D705F7365745F6669666F5F72617402
:103930006520636F6D706C657465202E2E2E2E2EA3
:103940002E0A00006D70755F7365745F646D705F43
:10395000737461746520636F6D706C657465202E7F
:103960002E2E2E2E2E0A00002DE9FC5F6849694A92
:10397000881CCDE9000100F11E032A31223002F03B
:10398000EDFF634C6088C0057ED5624D2868FCF76A
:1039900069FE6FF01D094946FCF728FD0746606087
:1039A0006868FCF75FFE4946FCF720FD8046A06092
:1039B000A868FCF757FE4946FCF718FD0646E0608C
:1039C000E868FCF74FFE4946FCF710FD054620610C
:1039D00001213846FCF70AFD3146FCF797FC074603
:1039E0004FF0404631464046FCF790FC2946FCF734
:1039F0008DFC3946FCF732FCFCF799FE02F042FBE5
:103A0000DFF814914FF0663842464B46FCF7A1FDB3
:103A1000FCF7A0FE6061E06801210546FCF7E6FCCA
:103A200082462946FCF772FC0546A06831460646E8
:103A3000FCF76CFC3146FCF769FC2946FCF760FC9E
:103A40004FF07E51FCF70AFCFCF771FE07460D466D
:103A500001216068FCF7CAFC3146FCF757FC0646BA
:103A600050462169FCF752FC3146FCF7F7FBFCF7A6
:103A70005EFE3A462B4602F04DFD42464B46FCF7B1
:103A800068FDFCF767FE00E040E0A061216901915C
:103A90000846FCF73BFCE168074608460091FCF746
:103AA00035FCA16806468B465846FCF72FFC61683A
:103AB00005468A465046FCF729FC2946FCF7CEFB12
:103AC0003146FCF71DFC3946FCF71AFCFCF72FFECB
:103AD00006460D4650460199FCF718FC0746584625
:103AE0000099FCF713FC3946FCF7B8FB0121FCF701
:103AF0007DFCFCF71CFE32462B4602F00BFD4246D5
:103B00004B46FCF726FDFCF725FEE061BDE8FC9F77
:103B1000040000201005002066A64C403EB50021A0
:103B2000114800910191029181600E4AC1600260CA
:103B3000416101244FF460220461C2614160FDF7DC
:103B40001FFD08B1FDF75EFB0420CDE9000407204E
:103B5000029069460448FDF78FFC002801D0FDF76C
:103B600051FB3EBD00240140C0050020094808B5B6
:103B7000416941F0010141614069002200F001000A
:103B8000009011460F20FEF71FFABDE808400F20F5
:103B9000FEF70EBA001002402DE9F04F85B0002567
:103BA00042480095019502950395816941F0100105
:103BB0008161816901F010010491816941F0200166
:103BC0008161816901F020010491816941F0040162
:103BD0008161816901F004010491816941F008016A
:103BE00081618069324E00F008004FF40054049067
:103BF000002221463046FEF778F9DFF8B8A001220E
:103C000028215046FEF771F9DFF8ACB001224BF2E3
:103C100004015846FEF769F94FF4407900224946FD
:103C20005846FEF762F9009401AA0124022782E8AF
:103C3000B00069463046FEF775F84FF004081F489B
:103C4000CDF80080CDE9010469465046FEF76AF8D8
:103C5000282003268DE8710069465046FEF762F879
:103C600001AACDF8008082E8B00069465846FEF708
:103C700059F84FF430408DE8710069465846FEF718
:103C800051F82002CDE90005694602945046FEF73E
:103C900049F801AA1120CDF8009082E85100694648
:103CA0005846FEF73FF805B0BDE8F08F001002401F
:103CB0000010014000080140000C014000001110FC
:103CC0001CB5002417480194154900940160611E39
:103CD000C0E90114FEF728FD08B1FDF793FA8DF84D
:103CE00004408DF805408DF80640012201A90D48D9
:103CF000FEF7E6FD08B1FDF785FA01208DF800001A
:103D00008DF801008DF8020002468DF803406946E7
:103D10000448FEF773FD002801D0FDF773FA1CBDBF
:103D200000280040F005002010B58CB02421684622
:103D3000FCF740FA0024154809944FF080410A949A
:103D4000C0E900144FF6FF71C0E9024104618461CB
:103D50000120CDE90004CDE902040494CDE9054039
:103D60000794694609480894FEF703FF08B1FDF778
:103D700049FA099409A905480A94FEF72AFE002881
:103D800001D0FDF73FFA0CB010BD00000406002082
:103D900010B58EB000240794089409940A940B94EB
:103DA0001C2168460C94FCF705FA2A482849C0E90A
:103DB000001441F61F41C0E9024104618461FEF72D
:103DC00030FE08B1FDF71EFA4FF48050079007A9A6
:103DD0002048FEF755FE08B1FDF714FA1D48FFF71D
:103DE000D8F808B1FDF70EFA0B940BA919480C94FA
:103DF000FEF7EFFD08B1FDF705FA6020CDE90004FC
:103E000002940022694613480494FFF75AF808B157
:103E1000FDF7F8F9042269460E48FFF752F808B199
:103E2000FDF7F0F9082269460A48FFF74AF808B199
:103E3000FDF7E8F90C2269460648FFF742F808B199
:103E4000FDF7E0F90348FFF703F80EB010BD0000DE
:103E5000000400404406002010B58CB024216846C0
:103E6000FCF7A8F900241548099413490A94C0E9FD
:103E700000144FF6FF71C0E9024104618461012022
:103E8000CDE90004CDE902040494CDE9054007948E
:103E900069460A480894FEF76CFE08B1FDF7B2F9CE
:103EA000099409A905480A94FEF793FD002801D05A
:103EB000FDF7A8F90CB010BD0008004084060020F2
:103EC0000C4810B50A4901604FF4E131416000210E
:103ED00081600C22C160C0E904128161C161FFF7F9
:103EE00019F9002803D0BDE81040FDF78BB910BDCB
:103EF00000380140C4060020FEE7000010B5114C58
:103F0000B4F90C10B4F90A00FDF7F6F8FFF726FB38
:103F1000A06C0028607802D040F0020001E020F0A0
:103F2000020060700849A06E884202DC074988429E
:103F300003D9607840F0040002E0607820F00400CB
:103F4000607010BD400000200000F0410000F0C192
:103F50002DE9F041324C216DE06DFCF77FF9A16B4A
:103F600006460F46FCF77AF9054620663046394684
:103F7000FCF7C6F9064660662846FCF792FB294F17
:103F8000002804DD39462846FCF768F905E00028DA
:103F900004DA39462846FCF7B3F920663046FCF7C8
:103FA00080FB002804DD39463046FCF757F905E070
:103FB000002804DA39463046FCF7A2F96066206E24
:103FC000FCF76FFB41F61645DFF85C80A84201DC88
:103FD000206E02E04046C4F86080FCF762FB134E9E
:103FE000134FB04200DA2766606EFCF75AFBA84216
:103FF00001DC606E02E04046C4F86480FCF751FBCF
:10400000B04200DA6766606EFCF74BFB0546206E37
:10401000FCF747FB2946BDE8F04100F009BE00006F
:104020004000002000002F4400B0E045EAE3FFFF1D
:1040300000B0E0C570470907090E002806DA00F055
:104040000F0000F1E02080F8141D704700F1E0201F
:1040500080F800147047000030B40021084B0A4675
:104060005FF0000003EBC004401CC0B26254802823
:10407000F8D3491CC9B20829F2D330BC00F0A6B865
:104080001001002010B57F2816D83F2914D8072327
:10409000A3EBD10301F00701C1F107040121A14005
:1040A000064CDBB204EBC000002AC25CC9B201D0EE
:1040B0000A4300E08A43C25410BD000010010020F2
:1040C00010B5012211033F48FDF70FFF3E4C0122BE
:1040D00008212046FDF709FF002220212046FDF798
:1040E00004FF6420FDF75AFD012220212046FDF740
:1040F000FCFE0021AE2000F013F90021D52000F0D5
:104100000FF90021502000F00BF90021A82000F049
:1041100007F900213F2000F003F90021D32000F02F
:10412000FFF80021084600F0FBF80021402000F0D5
:10413000F7F800218D2000F0F3F80021142000F0A2
:10414000EFF80021202000F0EBF80021022000F021
:10415000E7F80021A12000F0E3F80021C02000F0E2
:10416000DFF80021DA2000F0DBF80021122000F057
:10417000D7F80021812000F0D3F80021EF2000F0D3
:10418000CFF80021D92000F0CBF80021F12000F079
:10419000C7F80021DB2000F0C3F80021302000F038
:1041A000BFF80021A42000F0BBF80021A62000F0F9
:1041B000B7F80021AF2000F0B3F8BDE81040FFF7DA
:1041C0004BBF0000000C01400008014070B5114ECB
:1041D000002400BF04F1B000C0B2002100F0A0F83C
:1041E0000021084600F09CF80021102000F098F80B
:1041F0005FF0000506EBC5000121005D00F090F8BE
:104200006D1CEDB2802DF5D3641CE4B2082CE1D313
:1042100070BD0000100100202DE9FF4F1D460C4627
:104220008946580700D0012000EBD50069084843B3
:10423000203A00F0FF0A02F0FF0B002639E00C2DB7
:104240000FD0102D11D0182D35D11C490BEBCB0000
:1042500001EB80004FF00008875D380609D50D9A04
:104260000AE00BEB4B001649F2E7164901EB0B1085
:10427000F0E70D9890B1002221460098FFF702FF69
:104280007806641C070EE4B2A4EB0900A84207D12B
:1042900000984C46401CC0B2009008E00122EBE7B9
:1042A00008F1010000F0FF08B8F1080FD5D3761C23
:1042B000F6B25645C3D3BDE8FF8F00003293000825
:1042C000CE880008428D00082DE9F84F04461F46AD
:1042D000802016460D46A0EB5709C3F140084FF069
:1042E000010A16E0A14502D20024E819C5B2A8458A
:1042F00003DA00242546FFF7AFFECDF800A03278A0
:104300003B4629462046FFF787FF04EB5700C4B21F
:10431000761C307820385E28E4D9BDE8F88F00009C
:104320002DE9F047DFF874A0054609B1012200E04D
:10433000002208215046FDF7D8FD194E4FF4805950
:10434000002249463046FDF7D0FD00244FF40048D6
:104350007714002239463046FDF7C7FD280601D5FF
:10436000012200E0002241463046FDF7BEFD012259
:1043700039463046FDF7B9FD6806641C050EE4B207
:10438000082CE6D3012249463046FDF7AEFD5046E3
:10439000BDE8F04701220821FDF7A7BD0008014054
:1043A000000C014008B500218DF800104FF001020B
:1043B000694640B1482000F07BF90C2206491220E2
:1043C00000F0F0FA08BD322000F072F902490C2228
:1043D0000C390220F4E70000B80000202DE9F84F66
:1043E000064604464FF0010A4FF00008DFF86092DD
:1043F000984F20E1207823287ED197A1601CFBF7FD
:104400000BFF02F047F9FCF779F9C5B2681E632883
:1044100072D20A2D04EB050090A10DD2001DFBF70E
:10442000FBFE02F037F9FCF769F9C2B22946E01C3D
:1044300001F0AEF8E41C0CE0401DFBF7EDFE02F0CD
:1044400029F9FCF75BF9C2B22946201D01F0A0F85A
:10445000241D002850D099F800004D46012854D161
:104460007FA12046FBF7B1FE10B1002108464AE0CB
:104470007CA12046FBF7A9FEE8B177A12046FBF717
:10448000CBFE75A10020FBF7C7FE02F003F9FCF795
:1044900061F9009074A10020FBF7BEFE02F0FAF86B
:1044A000FCF758F97149FBF731FF834670490098D2
:1044B000FBF72CFF26E06FA12046FBF786FE20B31A
:1044C00065A12046FBF7A8FE63A10020FBF7A4FE30
:1044D00002F0E0F8FCF73EF9834663A10020FBF709
:1044E0009BFE02F0D7F8FCF735F900904FF0FF3152
:1044F0005846FBF77BFF00E09CE083465E4900984E
:10450000FBF736FF594600F04BFC5CA12046FBF759
:104510005CFE10B185F800A08CE059A12046FBF7A5
:1045200054FE0028F8D157A12046FBF74EFE002884
:10453000F2D155A12046FBF748FE08B346A120461C
:10454000FBF76AFE44A10020FBF766FE02F0A2F82A
:10455000FCF700F93E4D40A16C3528600020FBF7C8
:104560005BFE02F097F8FCF7F5F868603EA10020CA
:10457000FBF752FE02F08EF8FCF7ECF8A8602BE097
:1045800042A12046FBF721FE08B333A12046FBF7EA
:1045900043FE31A10020FBF73FFE02F07BF8FCF761
:1045A000D9F82B4D2CA1783528600020FBF734FE7C
:1045B00002F070F8FCF7CEF868602BA10020FBF742
:1045C0002BFE02F067F8FCF7C5F8A8600BE030A1FD
:1045D0002046FBF7FAFD08B1002005E02DA120469A
:1045E000FBF7F3FD18B1012000F056FA22E02AA1F2
:1045F0002046FBF7EAFD18B10020FFF7D3FEEBE7FA
:1046000026A12046FBF7E1FD18B10120FFF7CAFE05
:10461000E9E723A12046FBF7D8FD20B185F802A0E9
:1046200000F020FA06E01FA12046FBF7CEFD08B1FE
:1046300085F80280641C3978A01B8842FFF6DAAE48
:1046400087F80080BDE8F84F80211748FBF7B2BD1E
:1046500040000020F30000202C0000003B00000080
:1046600043530000434A00002A000000000020C11C
:1046700000002041434D00000000A040534E4B007D
:104680005355460053495400534150005353500072
:10469000474150004753500052410000525600001D
:1046A00052420000525300004807002070470000AB
:1046B000F0B585B00023194E194D1C4604939F197F
:1046C00097F8007CEF545B1CDBB2802BF7D3002300
:1046D00006E000BFC71811F8016B5B1CEE55DBB29A
:1046E0009342F7D3FDF70AFB0E4E0120CDE902609D
:1046F00004A900946846FDF763FA50B9002400232A
:104700002A59A1190220FDF7B9FA241DE4B2802C20
:10471000F5D3FDF7A9FA05B0F0BD000000F00008E0
:104720003005002000FC00082DE9F04F9A460546B0
:104730000023A0F2B270DDF824B0914688468228AA
:1047400002D30120BDE8F08F40F2B2741F4E204F1B
:1047500008E02046FEF7EFFE08B1334400E03B449A
:10476000641CA4B2AC42F4D3A8F10100C6B2002488
:10477000184FDFF864800EE0385D40F2A321484313
:1047800003EBC0132846FEF7D6FE10B1012C00D172
:104790004344641CA4B2B442EED340F2A32109FB0B
:1047A00001F00D4903EBC01049420844CAEB4A121C
:1047B000C2EB0A2100EB0110CBEB0B1100EB8100E7
:1047C0000A99084400F0D4F80020BBE70085E20114
:1047D0008033E101BEB3000880510100010901EB03
:1047E000810100F00F0000EB4100C0B2704770B5CE
:1047F0000446FDF77FFB05464FF47A7606E0FDF7A9
:1048000079FB401BB04201D9032070BD206840688D
:104810008006F4D52068416841F010014160002015
:1048200070BD000070B504460068416821F01001B9
:104830004160FDF75FFB05464FF47A7607E000BF65
:10484000FDF758FB401BB04201D9032070BD206822
:1048500040688006F4D5002070BD00001CB5012121
:104860000D48FDF751FF4AF2A254A04212D0002198
:104870000220CDE9000110231D220C2140F2E3703B
:10488000FFF752FF02B02246BDE810400121024866
:10489000FDF742BF1CBD0000F00500200168086A5A
:1048A000496A89B241EA00407047006881698AB26A
:1048B000C1698BB2816989B28A4203D0C06961F350
:1048C0001F40704743EA02407047F0B56424C1EBD3
:1048D000C1030927A500072603EB01130329B3FB36
:1048E000F7F100F5FA60114401440AD2401EB0FB12
:1048F000F4F201EB9001B0FBF5F0891A0844001DB9
:1049000008E0B0FBF4F201EB9001B0FBF5F0891A7E
:104910000844801CB0FBF6F106FB1100C0B2F0BDEC
:1049200070B50D4606460024FFF761FF48B93168AF
:10493000280C08623168A8B248623046FFF772FF5F
:1049400000B10124204670BD70B50D460646002416
:10495000FFF74DFF48B93168280C88613168A8B26B
:10496000C8613046FFF75EFF00B10124204670BDEC
:104970000B490A6853689B06FCD5536843F0100343
:1049800053600A68030C936180B2D061506820F0D4
:1049900010005060086841688906FCD57047000027
:1049A000F005002030B50023064C07E0C51825446B
:1049B0005B1C95F8005C01F8015BDBB29342F5D318
:1049C00030BD000000F000082DE9F0411B48DFF881
:1049D00068808CB041460068FBF740FCFBF7A7FEFF
:1049E000064617480F46B0F90200FBF73BFE154993
:1049F000FBF7BEFC4146FBF731FCFBF798FE044693
:104A000011480D46B0F90000FBF72CFE0F49FBF7EB
:104A1000AFFC4146FBF722FCFBF789FE8DE8F00076
:104A200002460B460AA104A800F0DAFD04A800F033
:104A30009DFD0CB0BDE8F08100003443180000205B
:104A400028000020666682412E00002000003643C8
:104A5000562C252E30662C252E30662C252E3066C1
:104A60000D0A000000B5074889B0431F00901A1FC7
:104A700005A101A800F0B4FD01A800F077FD09B080
:104A800000BD00005BA70008492C25732C25732C62
:104A900025730D0A000000002DE9F0418CB010B123
:104AA000012812D028E0174FB868FBF740FE0646F1
:104AB00088467868FBF73BFE04460D463868FBF7EE
:104AC00036FE0B46024610A111E00E4F0C37B868B7
:104AD000FBF72DFE064688467868FBF728FE04465D
:104AE0000D463868FBF723FE0B4602460BA18DE806
:104AF000700104A800F074FD04A800F037FD0CB0AC
:104B0000BDE8F081AC00002041502C252E32662CEF
:104B1000252E32662C252E32660D0A0053502C2588
:104B20002E32662C252E32662C252E32660D0A007A
:104B300000B5084889B00189C38801EB81014A00AA
:104B400005A1684600F04CFD684600F00FFD09B075
:104B500000BD000040000020522C25642C25640D6F
:104B60000A00000070472DE9F0478846089D8146FD
:104B70001E46174628461946FBF7C2FB044639462F
:104B80004046FBF703FE0CD241463846FBF7B8FB24
:104B90002146FBF7EDFB044641464846FBF7B0FBD8
:104BA0000BE039464046FBF7ABFB2146FBF7E0FB49
:104BB000044641464846FBF7A6FB2146FBF7D8FBD7
:104BC00004462946FBF7ECFD01D22C4605E03146B0
:104BD0002046FBF7DBFD00D234462046BDE8F087D7
:104BE0000E4810B50188002916D14FF47A71018062
:104BF0000B490888401C08800A494FF4347008802B
:104C00000948007808B1FFF793FF0022BDE8104083
:104C100004210648FDF769B910BD0000C80700204F
:104C2000460000204800002042000020000C014007
:104C3000124A10B500231468002804DAA36314682C
:104C40004042606302E063631468A0631068002957
:104C500004DAC36348421168086401E00364C16375
:104C600007484078002807D01068436310688363C2
:104C70001068C3631068036410BD00004406002080
:104C8000400000200649002031F8102012B1521EC9
:104C900021F81020401CC0B20528F5D37047000051
:104CA000C80700202DE9F0412A4CD4E90701084447
:104CB000FBF7E6FC4FF0FF32FBF7BDFCFBF74AFDCC
:104CC00000212162E161FBF732FD4FF03332224BCC
:104CD000FBF73FFC06460D46E06AFBF728FD4FF068
:104CE00066321E4BFBF735FC32462B46FBF78AFB40
:104CF000FBF730FD60620146E062A06AFBF700FB53
:104D000004F1780506462968FBF700FB07463046A4
:104D10006968FBF7FBFA0146206BFBF79FFA2063FB
:104D2000FBF7BFFCB0F5167F01DC206B01E00C48FF
:104D30002063FBF7B6FC10F5167F01DA0948206303
:104D4000A06D60653846216BFBF788FAA065BDE869
:104D5000F0810000400000203333D33F6666E63F19
:104D600000001644000016C470B50B4C616DA06DB8
:104D70000E46FBF7C5FA05466079401CFBF77BFC45
:104D80002946FBF7C3FA0549FBF7F2FA3146FBF770
:104D900065FA206570BD0000400000200000C84199
:104DA0002DE9F84381F0004580F000404FF4000702
:104DB0001549164E164CDFF85C80B8424FF00003E0
:104DC000009104DB32460021FFF7CDFE05E04246AC
:104DD0000021FFF7C8FE80F00040A0630E48BD42EE
:104DE0004FF00003009005DB324600212846FFF714
:104DF000BAFE06E0424600212846FFF7B4FE80F0E6
:104E00000040A062BDE8F883000016440000204185
:104E100040000020000020C10000114470B5FDF7E3
:104E20006FF81D480078012835D1FFF72BFF1B4E86
:104E30001B4C3078401C30702078401C2070FFF7ED
:104E400093FF30780025052804D33570BDE8704005
:104E5000FCF764BA01280BD002280DD003280FD02C
:104E6000042818D1FFF74AF8BDE87040FFF770B882
:104E7000BDE87040FEF778BDBDE87040FCF760B952
:104E8000084E3078401CC0B23070052803D3FFF7BD
:104E900009FF3570257070BDF00000204300002030
:104EA000450000204400002030B593B0282168461A
:104EB000FBF780F914210AA8FBF77CF900240121F3
:104EC0000F941194052012940090CDE902411094A2
:104ED0004FF48030019002250491CDE907504FF442
:104EE000E01009906846FDF78DFA0F20CDE90A051C
:104EF0006802CDE90C4002210AA80E94FDF776F96C
:104F000003200F90E8011090C00111900FA8FDF749
:104F1000F7F813B030BD00000D48016841F0010101
:104F2000016041680B4A1140416001680A4A114022
:104F30000160016821F480210160416821F4FE01D3
:104F400041604FF41F0181600449C003086070474D
:104F5000001002400000FFF8FFFFF6FE08ED00E041
:104F60000148FDF7C2BE0000040600200148FDF71D
:104F7000BCBE000084060020F0B50268164B174C3A
:104F8000174D4FF08047984205D0B84203D0A04259
:104F900001D0A84203D122F070064A6832439842F9
:104FA00005D0B84203D0A04201D0A84203D122F4D8
:104FB0004074CA68224322F080044A692243026096
:104FC0008A68C2620A688262984201D109690163F3
:104FD00001214161F0BD0000002C014000040040AF
:104FE0000008004010B50123046A8B409C43046212
:104FF000036A8A401343036210BD10B5846842EA15
:10500000032224F47F440A432243826010BD826855
:1050100022F070020A4342F00701816070470000ED
:1050200030B5026A22F001020262026A43688469B2
:1050300024F073050C682C4322F002058A682A4389
:105040000A4DA8420BD122F00805CA6823F4407328
:105050002A434D6922F004021D438B692B434360B0
:10506000846149684163026230BD0000002C014048
:1050700030B5026A22F010020262026A4368846953
:105080000D6824F4E64444EA05248D6822F02002E9
:1050900042EA05120B4DA8420ED1CD6822F08002E3
:1050A00042EA05124D6923F4406343EA85038D69A2
:1050B00022F0400243EA85034360846149688163CA
:1050C000026230BD002C014030B5026A22F48072C9
:1050D0000262036A4268C46923F4007324F0730512
:1050E0000C682C438D6843EA05230C4DA8420ED171
:1050F000CD6823F4006343EA05234D6922F440524E
:1051000042EA05128D6923F4806342EA0512426087
:10511000C4614968C163036230BD0000002C0140D6
:1051200030B5026A22F480520262046A4268C3699E
:105130000D6823F4E64343EA05238D6824F4005404
:1051400044EA0534064DA84204D14D6922F4804258
:1051500042EA85124260C36149680164046230BD5D
:10516000002C014010B5036A046A24F001040462B3
:10517000846924F0F00444EA021423F00A020A438A
:105180008461026210BD10B5036A23F0100303624C
:105190008369046A23F4704343EA023224F0A003D3
:1051A00043EA01118261016210BD10B5406A00211D
:1051B000C185C184FDF724FF10BD70B5446A206825
:1051C000406994F83910C0F3C0100025212904D19A
:1051D00018B1E584204600F046F82068406994F84C
:1051E0003A10C0F38010222904D118B1E585204679
:1051F00000F02BF8E06B40F01000E0632046FDF774
:10520000FFFE70BD10B50146406A0968096889064D
:1052100013D40021C1850168CA6822F48072CA6073
:1052200001684A6922F001024A6101684A6922F074
:1052300040024A61202180F83A10FEF741F810BD83
:1052400010B5406AFEF75EF810BD0168CA6822F426
:105250009072CA6001684A6922F001024A61202105
:1052600080F83A1070470168CA6822F0C002CA602C
:10527000202180F83910704710B590F83A10222993
:1052800001D0022010BD8168B1F5805F11D00169A5
:10529000002901681FD0496801F07F03816A4A1C18
:1052A00082620B70C18D491E0904090CC18518D09A
:1052B0002BE00269816A002A0268526805D0D2B2E6
:1052C0000A80816A491C8162ECE7C2F308020A8005
:1052D000816A891CF7E74A68816A4B1C83620A70FD
:1052E000E0E70168CA6822F02002CA600168CA6863
:1052F00022F48072CA6001684A6922F001024A61A0
:10530000202180F83A10FDF7DBFF002010BD0000DF
:105310002DE9F041044600680169E26821F440513A
:10532000114301612169A06808436169084321684C
:10533000CA6841F20C639A430243CA60206841691B
:10534000A26921F44071114341614C4920686425F0
:10535000322688423CD1FDF70FF800EBC00101EB8B
:10536000001061688900B0FBF1F7FDF705F800EB6C
:10537000C00101EB00106168B0468900B0FBF1F09C
:10538000B0FBF5F06FF01801484307EB800106EB26
:105390000110B0FBF5F000F0F006FCF7EDFF00EBBC
:1053A000C00101EB001061688900B0FBF1F0B0FBB7
:1053B000F5F006EB0016FCF7DFFF00EBC00101EB98
:1053C000001061688900B0FBF1F7FCF7D5FF3BE006
:1053D000FCF7C2FF00EBC00101EB0010616889001F
:1053E000B0FBF1F7FCF7B8FF00EBC00101EB0010D8
:1053F0006168B0468900B0FBF1F0B0FBF5F06FF0EA
:105400001801484307EB800106EB0110B0FBF5F0F3
:1054100000F0F006FCF7A0FF00EBC00101EB00106C
:1054200061688900B0FBF1F0B0FBF5F006EB001607
:10543000FCF792FF00EBC00101EB001061688900EE
:10544000B0FBF1F7FCF788FF00EBC00101EB0010A7
:1054500061688900B0FBF1F0B0FBF5F06FF0180166
:10546000484307EB800108EB0110B0FBF5F0216821
:1054700000F00F0030448860BDE8F0810038014042
:1054800090F83910212901D0022070478168B1F5C8
:10549000805F016A0BD04A1C026202680978516081
:1054A000C18C491E0904090CC1840ED017E009887B
:1054B0000268C1F30801516001690029016A02D044
:1054C000491C0162ECE7891CFBE70168CA6822F00D
:1054D0008002CA600068C16841F04001C1600020DC
:1054E00070472DE9F041984617460E460446069D42
:1054F0001DE0681C1BD02DB1FCF7FCFCA0EB0800E4
:10550000A84214D92068C16821F4D071C160206814
:10551000416921F001014161202084F8390084F8BB
:105520003A00002084F838000320BDE8F0812068AC
:10553000006836EA000004D00020B842D9D000202C
:10554000F3E70120F9E700000148FDF75BBD00002B
:10555000C406002008B5FF238DF80000012269462B
:105560000148FDF7D0FE08BDC406002070B5054611
:10557000FAF73DFE86B2002406E000BF15F8010BE5
:10558000FFF7E8FF641CA4B2B442F7D370BDFEE796
:1055900010B5144600F006F8A04201D1012010BD5C
:1055A000002010BD10B503460022104605E000BFE4
:1055B00013F8014B6040521CD2B28A42F8D310BD9E
:1055C0000FB4054B10B503A9044A029800F07EF908
:1055D00010BC5DF814FB0000F56F00080801002006
:1055E0000FB4084B10B504A902AA039800F06EF995
:1055F000044602A9002000F000FD204610BC5DF822
:1056000014FB0000FB5F0008490050EAC12018BFEE
:1056100004204A0D18BF40F0010040F2FF72B2EBC7
:10562000515F08BF40F00200012808BF0520704705
:105630002DE9F0414F1E00EBC7010446D1E90001FE
:1056400015461E4637F006020DD02A463346FAF7B5
:1056500080FF7F1E04EBC703D3E90023FAF7D2FED5
:1056600037F00602F1D1022F25D0042F13D0062FD8
:1056700018BFBDE8F0812A463346FAF76AFFD4E93D
:105680000A23FAF7BFFE2A463346FAF762FFD4E947
:105690000823FAF7B7FE2A463346FAF75AFFD4E949
:1056A0000623FAF7AFFE2A463346FAF752FFD4E94B
:1056B0000423FAF7A7FE2A463346FAF74AFFD4E94D
:1056C0000223FAF79FFE2A463346FAF742FFD4E94F
:1056D0000023BDE8F041FAF795BE0122FAF7ABBF0F
:1056E000FAF790BE0022134610461146FBF7ACB9FC
:1056F000024A00201107FAF79EBF000001FDFFFFDC
:1057000001480068704700000C01002002E008C852
:10571000121F08C1002AFAD170477047002001E02B
:1057200001C1121F002AFBD1704700000149086027
:10573000704700000C0100202DE9FF5F82B00021BE
:10574000DDE90430020DDDF840B0034318D044F623
:105750001050A2F2FF3242431514119801281FD0B5
:10576000A5EB0B00401C5FEA000A4FF000064E4F0D
:10577000DFF83891B046504615D5CAF1000413E061
:10578000119801244AA3012801D16FEA0B01029864
:10579000119AC0E90031C0E9024206B0BDE8F09FAD
:1057A000CBF10000DFE704460021404A491842EBF4
:1057B0000450CDE9001012E0E00707D032463B4626
:1057C00040464946FAF7C5FE8046894632463B4682
:1057D00010461946FAF7BDFE06460F466410002C27
:1057E000EAD1DDE90401DDE90023BAF1000F06DAB0
:1057F000FAF7AFFE42464B46FAF7ABFE05E0FBF781
:1058000023F942464B46FBF71FF904460E46002299
:10581000284BFBF7A1F903D84FF0FF30014607E012
:105820000022254B20463146FAF7ECFDFBF77BF9C9
:10583000102409E0002C0ADB0A220023FAF7D0FF2B
:10584000039B30321A55641E50EA0102F2D1641CE7
:10585000039AC4F111031444119A012A03D00122BE
:1058600008430DD10AE0084304D000204FF0110B8B
:10587000119072E7A3EB0B056D1E0DE05B4504DD97
:105880004FF0000205F1010504E003DA4FF00002D9
:10589000A5F10105002AECD002981199C0E9023166
:1058A000C0E9004579E70000000014400000F03F27
:1058B000300000000000F0430000E03F30380A28CC
:1058C00001D2012070470020704700002DE9FF4FF2
:1058D00095B09B468946064600250FE2252877D1DC
:1058E00000242746F84A0121059400E0044316F8F5
:1058F000013F203B01FA03F01042F7D130782A280B
:1059000011D06FF02F033078A0F13002092A16D899
:10591000059A44F0020402EB820203EB42021044B7
:10592000761C0590EFE759F8042B0592002A03DA5C
:10593000504244F40054059044F00204761C307840
:105940002E2816D116F8010F44F004042A280DD091
:105950006FF02F023078A0F13003092B09D807EB44
:10596000870302EB4303C718761CF3E759F8047B5F
:10597000761C30786C280FD006DC4C2817D06828AD
:105980000DD06A2814D104E0742810D07A280FD1E1
:105990000DE044F400140AE044F4801401E044F4FF
:1059A00040147278824202D104F58014761C761C71
:1059B000307866280BD013DC582877D009DC002813
:1059C00075D04528F6D04628F4D047281AD19DE155
:1059D00018E0632835D0642879D0652812D195E184
:1059E000702873D008DC6728F1D069286FD06E2842
:1059F0000DD06F2806D1B5E073282CD0752875D04E
:105A0000782874D05A46179990476D1C75E1C4F3F5
:105A10000250022809D003280DD0D9F8001004281C
:105A20000DD00D6009F1040967E1D9F80010EA17FB
:105A3000C1E90052F6E7D9F800100D80F2E70D70C9
:105A4000F0E719F8041B8DF8001000208DF8010014
:105A5000EA46012003E059F804AB4FF0FF3061073C
:105A60004FF0000102D40DE008F101018846B9426F
:105A70000FDA8045F8DB1AF808100029F4D108E0A5
:105A800008F1010188468142FADB1AF80810002962
:105A9000F6D105985B46A0EB080721463846179AD1
:105AA00000F094FA284400EB080507E04DE029E1F6
:105AB0000DE01AF8010B5A4617999047B8F1010802
:105AC000F7D25B4621463846179A13E142E00A2294
:105AD0000092C4F302524FF0000A022A08D059F88B
